{"abi":[{"type":"constructor","inputs":[{"name":"_seller","type":"address","internalType":"address"},{"name":"_description","type":"string","internalType":"string"},{"name":"_ipfsHash","type":"string","internalType":"string"},{"name":"_durationSeconds","type":"uint256","internalType":"uint256"}],"stateMutability":"nonpayable"},{"type":"function","name":"deadline","inputs":[],"outputs":[{"name":"","type":"uint256","internalType":"uint256"}],"stateMutability":"view"},{"type":"function","name":"finalize","inputs":[],"outputs":[],"stateMutability":"nonpayable"},{"type":"function","name":"finalized","inputs":[],"outputs":[{"name":"","type":"bool","internalType":"bool"}],"stateMutability":"view"},{"type":"function","name":"highestBid","inputs":[],"outputs":[{"name":"","type":"uint256","internalType":"uint256"}],"stateMutability":"view"},{"type":"function","name":"highestBidder","inputs":[],"outputs":[{"name":"","type":"address","internalType":"address"}],"stateMutability":"view"},{"type":"function","name":"ipfsHash","inputs":[],"outputs":[{"name":"","type":"string","internalType":"string"}],"stateMutability":"view"},{"type":"function","name":"itemDescription","inputs":[],"outputs":[{"name":"","type":"string","internalType":"string"}],"stateMutability":"view"},{"type":"function","name":"placeBid","inputs":[],"outputs":[],"stateMutability":"payable"},{"type":"function","name":"seller","inputs":[],"outputs":[{"name":"","type":"address","internalType":"address"}],"stateMutability":"view"},{"type":"event","name":"AuctionFinalized","inputs":[{"name":"winner","type":"address","indexed":true,"internalType":"address"},{"name":"amount","type":"uint256","indexed":false,"internalType":"uint256"}],"anonymous":false},{"type":"event","name":"NewBid","inputs":[{"name":"bidder","type":"address","indexed":true,"internalType":"address"},{"name":"amount","type":"uint256","indexed":false,"internalType":"uint256"}],"anonymous":false}],"bytecode":{"object":"0x608060405234801562000010575f80fd5b506040516200132c3803806200132c8339818101604052810190620000369190620002d5565b835f806101000a81548173ffffffffffffffffffffffffffffffffffffffff021916908373ffffffffffffffffffffffffffffffffffffffff1602179055508260059081620000869190620005b0565b508160069081620000989190620005b0565b508042620000a79190620006c1565b60038190555050505050620006fb565b5f604051905090565b5f80fd5b5f80fd5b5f73ffffffffffffffffffffffffffffffffffffffff82169050919050565b5f620000f382620000c8565b9050919050565b6200010581620000e7565b811462000110575f80fd5b50565b5f815190506200012381620000fa565b92915050565b5f80fd5b5f80fd5b5f601f19601f8301169050919050565b7f4e487b71000000000000000000000000000000000000000000000000000000005f52604160045260245ffd5b620001798262000131565b810181811067ffffffffffffffff821117156200019b576200019a62000141565b5b80604052505050565b5f620001af620000b7565b9050620001bd82826200016e565b919050565b5f67ffffffffffffffff821115620001df57620001de62000141565b5b620001ea8262000131565b9050602081019050919050565b5f5b8381101562000216578082015181840152602081019050620001f9565b5f8484015250505050565b5f620002376200023184620001c2565b620001a4565b9050828152602081018484840111156200025657620002556200012d565b5b62000263848285620001f7565b509392505050565b5f82601f83011262000282576200028162000129565b5b81516200029484826020860162000221565b91505092915050565b5f819050919050565b620002b1816200029d565b8114620002bc575f80fd5b50565b5f81519050620002cf81620002a6565b92915050565b5f805f8060808587031215620002f057620002ef620000c0565b5b5f620002ff8782880162000113565b945050602085015167ffffffffffffffff811115620003235762000322620000c4565b5b62000331878288016200026b565b935050604085015167ffffffffffffffff811115620003555762000354620000c4565b5b62000363878288016200026b565b92505060606200037687828801620002bf565b91505092959194509250565b5f81519050919050565b7f4e487b71000000000000000000000000000000000000000000000000000000005f52602260045260245ffd5b5f6002820490506001821680620003d157607f821691505b602082108103620003e757620003e66200038c565b5b50919050565b5f819050815f5260205f209050919050565b5f6020601f8301049050919050565b5f82821b905092915050565b5f600883026200044b7fffffffffffffffffffffffffffffffffffffffffffffffffffffffffffffffff826200040e565b6200045786836200040e565b95508019841693508086168417925050509392505050565b5f819050919050565b5f62000498620004926200048c846200029d565b6200046f565b6200029d565b9050919050565b5f819050919050565b620004b38362000478565b620004cb620004c2826200049f565b8484546200041a565b825550505050565b5f90565b620004e1620004d3565b620004ee818484620004a8565b505050565b5b818110156200051557620005095f82620004d7565b600181019050620004f4565b5050565b601f82111562000564576200052e81620003ed565b6200053984620003ff565b8101602085101562000549578190505b620005616200055885620003ff565b830182620004f3565b50505b505050565b5f82821c905092915050565b5f620005865f198460080262000569565b1980831691505092915050565b5f620005a0838362000575565b9150826002028217905092915050565b620005bb8262000382565b67ffffffffffffffff811115620005d757620005d662000141565b5b620005e38254620003b9565b620005f082828562000519565b5f60209050601f83116001811462000626575f841562000611578287015190505b6200061d858262000593565b8655506200068c565b601f1984166200063686620003ed565b5f5b828110156200065f5784890151825560018201915060208501945060208101905062000638565b868310156200067f57848901516200067b601f89168262000575565b8355505b6001600288020188555050505b505050505050565b7f4e487b71000000000000000000000000000000000000000000000000000000005f52601160045260245ffd5b5f620006cd826200029d565b9150620006da836200029d565b9250828201905080821115620006f557620006f462000694565b5b92915050565b610c2380620007095f395ff3fe608060405260043610610085575f3560e01c80639f365226116100585780639f3652261461011d578063b3f05b9714610147578063c623674f14610171578063d57bde791461019b578063ecfc7ecc146101c557610085565b806308551a531461008957806329dcb0cf146100b35780634bb278f3146100dd57806391f90157146100f3575b5f80fd5b348015610094575f80fd5b5061009d6101cf565b6040516100aa91906107b8565b60405180910390f35b3480156100be575f80fd5b506100c76101f2565b6040516100d491906107e9565b60405180910390f35b3480156100e8575f80fd5b506100f16101f8565b005b3480156100fe575f80fd5b506101076103e4565b60405161011491906107b8565b60405180910390f35b348015610128575f80fd5b50610131610409565b60405161013e919061088c565b60405180910390f35b348015610152575f80fd5b5061015b610495565b60405161016891906108c6565b60405180910390f35b34801561017c575f80fd5b506101856104a7565b604051610192919061088c565b60405180910390f35b3480156101a6575f80fd5b506101af610533565b6040516101bc91906107e9565b60405180910390f35b6101cd610539565b005b5f8054906101000a900473ffffffffffffffffffffffffffffffffffffffff1681565b60035481565b60035442101561023d576040517f08c379a000000000000000000000000000000000000000000000000000000000815260040161023490610929565b60405180910390fd5b60045f9054906101000a900460ff161561028c576040517f08c379a000000000000000000000000000000000000000000000000000000000815260040161028390610991565b60405180910390fd5b600160045f6101000a81548160ff0219169083151502179055505f805f9054906101000a900473ffffffffffffffffffffffffffffffffffffffff1673ffffffffffffffffffffffffffffffffffffffff166002546040516102ed906109dc565b5f6040518083038185875af1925050503d805f8114610327576040519150601f19603f3d011682016040523d82523d5f602084013e61032c565b606091505b5050905080610370576040517f08c379a000000000000000000000000000000000000000000000000000000000815260040161036790610a3a565b60405180910390fd5b60015f9054906101000a900473ffffffffffffffffffffffffffffffffffffffff1673ffffffffffffffffffffffffffffffffffffffff167f357afab190ee87fe0ef1c717f2728d2904d9e415a069d99f4d9382873cb3279d6002546040516103d991906107e9565b60405180910390a250565b60015f9054906101000a900473ffffffffffffffffffffffffffffffffffffffff1681565b6005805461041690610a85565b80601f016020809104026020016040519081016040528092919081815260200182805461044290610a85565b801561048d5780601f106104645761010080835404028352916020019161048d565b820191905f5260205f20905b81548152906001019060200180831161047057829003601f168201915b505050505081565b60045f9054906101000a900460ff1681565b600680546104b490610a85565b80601f01602080910402602001604051908101604052809291908181526020018280546104e090610a85565b801561052b5780601f106105025761010080835404028352916020019161052b565b820191905f5260205f20905b81548152906001019060200180831161050e57829003601f168201915b505050505081565b60025481565b600354421061057d576040517f08c379a000000000000000000000000000000000000000000000000000000000815260040161057490610aff565b60405180910390fd5b60025434116105c1576040517f08c379a00000000000000000000000000000000000000000000000000000000081526004016105b890610b67565b60405180910390fd5b5f73ffffffffffffffffffffffffffffffffffffffff1660015f9054906101000a900473ffffffffffffffffffffffffffffffffffffffff1673ffffffffffffffffffffffffffffffffffffffff16146106e2575f60015f9054906101000a900473ffffffffffffffffffffffffffffffffffffffff1673ffffffffffffffffffffffffffffffffffffffff1660025460405161065d906109dc565b5f6040518083038185875af1925050503d805f8114610697576040519150601f19603f3d011682016040523d82523d5f602084013e61069c565b606091505b50509050806106e0576040517f08c379a00000000000000000000000000000000000000000000000000000000081526004016106d790610bcf565b60405180910390fd5b505b3360015f6101000a81548173ffffffffffffffffffffffffffffffffffffffff021916908373ffffffffffffffffffffffffffffffffffffffff160217905550346002819055503373ffffffffffffffffffffffffffffffffffffffff167fdd0b6c6a77960e2066c96171b4d7ac9e8b4c184011f38544afa36a5bb63ec59f3460405161076f91906107e9565b60405180910390a2565b5f73ffffffffffffffffffffffffffffffffffffffff82169050919050565b5f6107a282610779565b9050919050565b6107b281610798565b82525050565b5f6020820190506107cb5f8301846107a9565b92915050565b5f819050919050565b6107e3816107d1565b82525050565b5f6020820190506107fc5f8301846107da565b92915050565b5f81519050919050565b5f82825260208201905092915050565b5f5b8381101561083957808201518184015260208101905061081e565b5f8484015250505050565b5f601f19601f8301169050919050565b5f61085e82610802565b610868818561080c565b935061087881856020860161081c565b61088181610844565b840191505092915050565b5f6020820190508181035f8301526108a48184610854565b905092915050565b5f8115159050919050565b6108c0816108ac565b82525050565b5f6020820190506108d95f8301846108b7565b92915050565b7f41756374696f6e207374696c6c206163746976650000000000000000000000005f82015250565b5f61091360148361080c565b915061091e826108df565b602082019050919050565b5f6020820190508181035f83015261094081610907565b9050919050565b7f416c72656164792066696e616c697a65640000000000000000000000000000005f82015250565b5f61097b60118361080c565b915061098682610947565b602082019050919050565b5f6020820190508181035f8301526109a88161096f565b9050919050565b5f81905092915050565b50565b5f6109c75f836109af565b91506109d2826109b9565b5f82019050919050565b5f6109e6826109bc565b9150819050919050565b7f5472616e73666572204661696c656400000000000000000000000000000000005f82015250565b5f610a24600f8361080c565b9150610a2f826109f0565b602082019050919050565b5f6020820190508181035f830152610a5181610a18565b9050919050565b7f4e487b71000000000000000000000000000000000000000000000000000000005f52602260045260245ffd5b5f6002820490506001821680610a9c57607f821691505b602082108103610aaf57610aae610a58565b5b50919050565b7f41756374696f6e20456e646564000000000000000000000000000000000000005f82015250565b5f610ae9600d8361080c565b9150610af482610ab5565b602082019050919050565b5f6020820190508181035f830152610b1681610add565b9050919050565b7f42696420746f6f206c6f770000000000000000000000000000000000000000005f82015250565b5f610b51600b8361080c565b9150610b5c82610b1d565b602082019050919050565b5f6020820190508181035f830152610b7e81610b45565b9050919050565b7f526566756e64206661696c6564000000000000000000000000000000000000005f82015250565b5f610bb9600d8361080c565b9150610bc482610b85565b602082019050919050565b5f6020820190508181035f830152610be681610bad565b905091905056fea26469706673582212201b2566911f3bbfdbf0ac699c19773b65f6dec63acc72da09b014a174de11735764736f6c63430008140033","linkReferences":{}},"methodIdentifiers":{"deadline()":"29dcb0cf","finalize()":"4bb278f3","finalized()":"b3f05b97","highestBid()":"d57bde79","highestBidder()":"91f90157","ipfsHash()":"c623674f","itemDescription()":"9f365226","placeBid()":"ecfc7ecc","seller()":"08551a53"},"id":19}